{
  "contractName": "Osliki",
  "abi": [
    {
      "constant": true,
      "inputs": [
        {
          "name": "",
          "type": "uint256"
        }
      ],
      "name": "invoices",
      "outputs": [
        {
          "name": "carrier",
          "type": "address"
        },
        {
          "name": "orderId",
          "type": "uint256"
        },
        {
          "name": "prepayment",
          "type": "uint256"
        },
        {
          "name": "deposit",
          "type": "uint256"
        },
        {
          "name": "depositHash",
          "type": "bytes32"
        },
        {
          "name": "status",
          "type": "uint8"
        }
      ],
      "payable": false,
      "stateMutability": "view",
      "type": "function"
    },
    {
      "constant": true,
      "inputs": [
        {
          "name": "",
          "type": "uint256"
        }
      ],
      "name": "offers",
      "outputs": [
        {
          "name": "carrier",
          "type": "address"
        },
        {
          "name": "orderId",
          "type": "uint256"
        },
        {
          "name": "message",
          "type": "string"
        }
      ],
      "payable": false,
      "stateMutability": "view",
      "type": "function"
    },
    {
      "constant": true,
      "inputs": [
        {
          "name": "",
          "type": "uint256"
        }
      ],
      "name": "orders",
      "outputs": [
        {
          "name": "customer",
          "type": "address"
        },
        {
          "name": "from",
          "type": "string"
        },
        {
          "name": "to",
          "type": "string"
        },
        {
          "name": "message",
          "type": "string"
        },
        {
          "name": "carrier",
          "type": "address"
        },
        {
          "name": "invoiceId",
          "type": "uint256"
        },
        {
          "name": "status",
          "type": "uint8"
        },
        {
          "name": "createdAt",
          "type": "uint256"
        },
        {
          "name": "updatedAt",
          "type": "uint256"
        }
      ],
      "payable": false,
      "stateMutability": "view",
      "type": "function"
    },
    {
      "inputs": [],
      "payable": false,
      "stateMutability": "nonpayable",
      "type": "constructor"
    },
    {
      "anonymous": false,
      "inputs": [
        {
          "indexed": false,
          "name": "",
          "type": "uint256"
        }
      ],
      "name": "NewOrder",
      "type": "event"
    },
    {
      "anonymous": false,
      "inputs": [
        {
          "indexed": false,
          "name": "",
          "type": "uint256"
        },
        {
          "indexed": false,
          "name": "",
          "type": "uint256"
        }
      ],
      "name": "NewOffer",
      "type": "event"
    },
    {
      "anonymous": false,
      "inputs": [
        {
          "indexed": false,
          "name": "",
          "type": "uint256"
        }
      ],
      "name": "NewInvoice",
      "type": "event"
    },
    {
      "constant": false,
      "inputs": [
        {
          "name": "from",
          "type": "string"
        },
        {
          "name": "to",
          "type": "string"
        },
        {
          "name": "params",
          "type": "uint256[4]"
        },
        {
          "name": "message",
          "type": "string"
        }
      ],
      "name": "addOrder",
      "outputs": [
        {
          "name": "orderId",
          "type": "uint256"
        }
      ],
      "payable": false,
      "stateMutability": "nonpayable",
      "type": "function"
    },
    {
      "constant": false,
      "inputs": [
        {
          "name": "orderId",
          "type": "uint256"
        },
        {
          "name": "message",
          "type": "string"
        }
      ],
      "name": "addOffer",
      "outputs": [
        {
          "name": "offerId",
          "type": "uint256"
        }
      ],
      "payable": false,
      "stateMutability": "nonpayable",
      "type": "function"
    },
    {
      "constant": true,
      "inputs": [
        {
          "name": "orderId",
          "type": "uint256"
        }
      ],
      "name": "getOrderOffers",
      "outputs": [
        {
          "components": [
            {
              "name": "carrier",
              "type": "address"
            },
            {
              "name": "orderId",
              "type": "uint256"
            },
            {
              "name": "message",
              "type": "string"
            }
          ],
          "name": "orderOffers",
          "type": "tuple[]"
        }
      ],
      "payable": false,
      "stateMutability": "view",
      "type": "function"
    }
  ],
  "bytecode": "0x6060604052341561000f57600080fd5b6116188061001e6000396000f300606060405260043610610078576000357c0100000000000000000000000000000000000000000000000000000000900463ffffffff168063429cb7021461007d57806347668fb8146100b35780634e6d1405146100e957806364bdef31146101245780638a72ea6a1461015a578063a85c38ef14610192575b600080fd5b341561008857600080fd5b61009d6004610098903690611118565b6101d0565b6040516100aa919061140e565b60405180910390f35b34156100be57600080fd5b6100d360046100ce9036906110ef565b610353565b6040516100e091906113ec565b60405180910390f35b34156100f457600080fd5b61010960046101049036906110ef565b610552565b60405161011b9695949392919061138b565b60405180910390f35b341561012f57600080fd5b610144600461013f903690611044565b6105ca565b604051610151919061140e565b60405180910390f35b341561016557600080fd5b61017a60046101759036906110ef565b61084b565b6040516101899392919061134d565b60405180910390f35b341561019d57600080fd5b6101b260046101ad9036906110ef565b61093c565b6040516101c7999897969594939291906112ab565b60405180910390f35b6000600180548060010182816101e69190610bae565b916000526020600020906003020160006060604051908101604052803373ffffffffffffffffffffffffffffffffffffffff16815260200187815260200186815250909190915060008201518160000160006101000a81548173ffffffffffffffffffffffffffffffffffffffff021916908373ffffffffffffffffffffffffffffffffffffffff16021790555060208201518160010155604082015181600201908051906020019061029a929190610be0565b50505050600180805490500390506000838154811015156102b757fe5b90600052602060002090600e020160080180548060010182816102da9190610c60565b916000526020600020900160008390919091505550436000848154811015156102ff57fe5b90600052602060002090600e0201600d01819055507f6299c7417131e904ef620f0a7c7e1ef5bab26a3082229e937ae0925a8897b4148382604051610345929190611429565b60405180910390a192915050565b61035b610c8c565b610363610ca0565b6000808481548110151561037357fe5b90600052602060002090600e02016008018054806020026020016040519081016040528092919081815260200182805480156103ce57602002820191906000526020600020905b8154815260200190600101908083116103ba575b50505050509150600090505b815181101561054b57600182828151811015156103f357fe5b9060200190602002015181548110151561040957fe5b9060005260206000209060030201606060405190810160405290816000820160009054906101000a900473ffffffffffffffffffffffffffffffffffffffff1673ffffffffffffffffffffffffffffffffffffffff1673ffffffffffffffffffffffffffffffffffffffff16815260200160018201548152602001600282018054600181600116156101000203166002900480601f01602080910402602001604051908101604052809291908181526020018280546001816001161561010002031660029004801561051c5780601f106104f15761010080835404028352916020019161051c565b820191906000526020600020905b8154815290600101906020018083116104ff57829003601f168201915b505050505081525050838281518110151561053357fe5b906020019060200201819052508060010190506103da565b5050919050565b60028181548110151561056157fe5b90600052602060002090600602016000915090508060000160009054906101000a900473ffffffffffffffffffffffffffffffffffffffff16908060010154908060020154908060030154908060040154908060050160009054906101000a900460ff16905086565b60008080548060010182816105df9190610cb4565b91600052602060002090600e02016000610160604051908101604052803373ffffffffffffffffffffffffffffffffffffffff168152602001898152602001888152602001878152602001868152602001600060405180591061063f5750595b90808252806020026020018201604052508152602001600073ffffffffffffffffffffffffffffffffffffffff168152602001600081526020016000600281111561068657fe5b815260200143815260200143815250909190915060008201518160000160006101000a81548173ffffffffffffffffffffffffffffffffffffffff021916908373ffffffffffffffffffffffffffffffffffffffff16021790555060208201518160010190805190602001906106fd929190610be0565b50604082015181600201908051906020019061071a929190610be0565b50606082015181600301906004610732929190610ce6565b50608082015181600701908051906020019061074f929190610be0565b5060a082015181600801908051906020019061076c929190610d26565b5060c08201518160090160006101000a81548173ffffffffffffffffffffffffffffffffffffffff021916908373ffffffffffffffffffffffffffffffffffffffff16021790555060e082015181600a015561010082015181600b0160006101000a81548160ff021916908360028111156107e357fe5b021790555061012082015181600c015561014082015181600d015550505060016000805490500390507fd56de72b04be4cf70c2bab5e6905fb51e28beb22f7a5d40a6dc4103149d611068160405161083b919061140e565b60405180910390a1949350505050565b60018181548110151561085a57fe5b90600052602060002090600302016000915090508060000160009054906101000a900473ffffffffffffffffffffffffffffffffffffffff1690806001015490806002018054600181600116156101000203166002900480601f0160208091040260200160405190810160405280929190818152602001828054600181600116156101000203166002900480156109325780601f1061090757610100808354040283529160200191610932565b820191906000526020600020905b81548152906001019060200180831161091557829003601f168201915b5050505050905083565b60008181548110151561094b57fe5b90600052602060002090600e02016000915090508060000160009054906101000a900473ffffffffffffffffffffffffffffffffffffffff1690806001018054600181600116156101000203166002900480601f016020809104026020016040519081016040528092919081815260200182805460018160011615610100020316600290048015610a1d5780601f106109f257610100808354040283529160200191610a1d565b820191906000526020600020905b815481529060010190602001808311610a0057829003601f168201915b505050505090806002018054600181600116156101000203166002900480601f016020809104026020016040519081016040528092919081815260200182805460018160011615610100020316600290048015610abb5780601f10610a9057610100808354040283529160200191610abb565b820191906000526020600020905b815481529060010190602001808311610a9e57829003601f168201915b505050505090806007018054600181600116156101000203166002900480601f016020809104026020016040519081016040528092919081815260200182805460018160011615610100020316600290048015610b595780601f10610b2e57610100808354040283529160200191610b59565b820191906000526020600020905b815481529060010190602001808311610b3c57829003601f168201915b5050505050908060090160009054906101000a900473ffffffffffffffffffffffffffffffffffffffff169080600a01549080600b0160009054906101000a900460ff169080600c01549080600d0154905089565b815481835581811511610bdb57600302816003028360005260206000209182019101610bda9190610d73565b5b505050565b828054600181600116156101000203166002900490600052602060002090601f016020900481019282601f10610c2157805160ff1916838001178555610c4f565b82800160010185558215610c4f579182015b82811115610c4e578251825591602001919060010190610c33565b5b509050610c5c9190610dd1565b5090565b815481835581811511610c8757818360005260206000209182019101610c869190610dd1565b5b505050565b602060405190810160405280600081525090565b602060405190810160405280600081525090565b815481835581811511610ce157600e0281600e028360005260206000209182019101610ce09190610df6565b5b505050565b8260048101928215610d15579160200282015b82811115610d14578251825591602001919060010190610cf9565b5b509050610d229190610dd1565b5090565b828054828255906000526020600020908101928215610d62579160200282015b82811115610d61578251825591602001919060010190610d46565b5b509050610d6f9190610dd1565b5090565b610dce91905b80821115610dca57600080820160006101000a81549073ffffffffffffffffffffffffffffffffffffffff02191690556001820160009055600282016000610dc19190610edf565b50600301610d79565b5090565b90565b610df391905b80821115610def576000816000905550600101610dd7565b5090565b90565b610edc91905b80821115610ed857600080820160006101000a81549073ffffffffffffffffffffffffffffffffffffffff0219169055600182016000610e3c9190610edf565b600282016000610e4c9190610edf565b600382016000610e5c9190610f27565b600782016000610e6c9190610edf565b600882016000610e7c9190610f43565b6009820160006101000a81549073ffffffffffffffffffffffffffffffffffffffff0219169055600a820160009055600b820160006101000a81549060ff0219169055600c820160009055600d82016000905550600e01610dfc565b5090565b90565b50805460018160011615610100020316600290046000825580601f10610f055750610f24565b601f016020900490600052602060002090810190610f239190610dd1565b5b50565b5060008155600101600081556001016000815560010160009055565b5080546000825590600052602060002090810190610f619190610dd1565b50565b600082601f8301121515610f7757600080fd5b6004610f8a610f858261147f565b611452565b91508183856020840282011115610fa057600080fd5b60005b83811015610fd05781610fb68882611030565b845260208401935060208301925050600181019050610fa3565b5050505092915050565b600082601f8301121515610fed57600080fd5b8135611000610ffb826114a1565b611452565b9150808252602083016020830185838301111561101c57600080fd5b61102783828461158b565b50505092915050565b600061103c823561155d565b905092915050565b60008060008060e0858703121561105a57600080fd5b600085013567ffffffffffffffff81111561107457600080fd5b61108087828801610fda565b945050602085013567ffffffffffffffff81111561109d57600080fd5b6110a987828801610fda565b93505060406110ba87828801610f64565b92505060c085013567ffffffffffffffff8111156110d757600080fd5b6110e387828801610fda565b91505092959194509250565b60006020828403121561110157600080fd5b600061110f84828501611030565b91505092915050565b6000806040838503121561112b57600080fd5b600061113985828601611030565b925050602083013567ffffffffffffffff81111561115657600080fd5b61116285828601610fda565b9150509250929050565b611175816114fd565b82525050565b6000611186826114da565b8084526020840193508360208202850161119f856114cd565b60005b848110156111d85783830388526111ba83835161124c565b92506111c5826114f0565b91506020880197506001810190506111a2565b508196508694505050505092915050565b6111f28161151d565b82525050565b61120181611567565b82525050565b61121081611579565b82525050565b6000611221826114e5565b80845261123581602086016020860161159a565b61123e816115cd565b602085010191505092915050565b6000606083016000830151611264600086018261116c565b506020830151611277602086018261129c565b506040830151848203604086015261128f8282611216565b9150508091505092915050565b6112a581611553565b82525050565b6000610120820190506112c1600083018c61116c565b81810360208301526112d3818b611216565b905081810360408301526112e7818a611216565b905081810360608301526112fb8189611216565b905061130a608083018861116c565b61131760a083018761129c565b61132460c0830186611207565b61133160e083018561129c565b61133f61010083018461129c565b9a9950505050505050505050565b6000606082019050611362600083018661116c565b61136f602083018561129c565b81810360408301526113818184611216565b9050949350505050565b600060c0820190506113a0600083018961116c565b6113ad602083018861129c565b6113ba604083018761129c565b6113c7606083018661129c565b6113d460808301856111e9565b6113e160a08301846111f8565b979650505050505050565b60006020820190508181036000830152611406818461117b565b905092915050565b6000602082019050611423600083018461129c565b92915050565b600060408201905061143e600083018561129c565b61144b602083018461129c565b9392505050565b6000604051905081810181811067ffffffffffffffff8211171561147557600080fd5b8060405250919050565b600067ffffffffffffffff82111561149657600080fd5b602082029050919050565b600067ffffffffffffffff8211156114b857600080fd5b601f19601f8301169050602081019050919050565b6000602082019050919050565b600081519050919050565b600081519050919050565b6000602082019050919050565b600073ffffffffffffffffffffffffffffffffffffffff82169050919050565b6000819050919050565b600060038210151561153557fe5b819050919050565b600060038210151561154b57fe5b819050919050565b6000819050919050565b6000819050919050565b600061157282611527565b9050919050565b60006115848261153d565b9050919050565b82818337600083830152505050565b60005b838110156115b857808201518184015260208101905061159d565b838111156115c7576000848401525b50505050565b6000601f19601f83011690509190505600a265627a7a723058207ba6f759a8b00b69acc37c8b8dbed14ef4f90c69f2c73374c8842ca85c4e41d16c6578706572696d656e74616cf50037",
  "source": "pragma solidity ^0.4.21;\r\npragma experimental ABIEncoderV2;\r\n\r\ncontract Osliki {\r\n\r\n    Order[] public orders;\r\n    Offer[] public offers;\r\n    Invoice[] public invoices;\r\n\r\n    enum EnumOrderStatus { New, Process, Fulfilled }\r\n    enum EnumInvoiceStatus { New, Prepaid, Paid }\r\n\r\n    event NewOrder(uint);\r\n    event NewOffer(uint, uint);\r\n    event NewInvoice(uint);\r\n\r\n    function Osliki() public {\r\n\r\n    }\r\n\r\n    struct Offer {\r\n        address carrier;\r\n        uint orderId;\r\n        string message;\r\n    }\r\n\r\n    struct Order {\r\n       address customer;\r\n\r\n        string from;\r\n        string to;\r\n        uint[4] params;\r\n        string message;\r\n\r\n        uint[] offerIds;\r\n\r\n        address carrier;\r\n        uint invoiceId;\r\n\r\n        EnumOrderStatus status;\r\n        uint256 createdAt;\r\n        uint256 updatedAt;\r\n    }\r\n\r\n    struct Invoice {\r\n        address carrier;\r\n        uint orderId;\r\n        uint prepayment;\r\n        uint deposit;\r\n        bytes32 depositHash;\r\n        EnumInvoiceStatus status;\r\n    }\r\n\r\n    /*  params[0] - weight (kg)\r\n        params[1] - lenght (m)\r\n        params[2] - width (m)\r\n        params[3] - height (m)    */\r\n    function addOrder(\r\n        string from,\r\n        string to,\r\n        uint[4] params,\r\n        string message\r\n    ) public returns (uint orderId) {\r\n        orders.push(Order({\r\n            customer: msg.sender,\r\n\r\n            from: from,\r\n            to: to,\r\n            params: params,\r\n            message: message,\r\n\r\n            offerIds: new uint[](0),\r\n\r\n            carrier: 0x0,\r\n            invoiceId: 0,\r\n\r\n            status: EnumOrderStatus.New,\r\n            createdAt: block.number,\r\n            updatedAt: block.number\r\n        }));\r\n\r\n        orderId = orders.length -1;\r\n\r\n        emit NewOrder(orderId);\r\n    }\r\n\r\n    function addOffer(\r\n        uint orderId,\r\n        string message\r\n    ) public returns (uint offerId) {\r\n        offers.push(Offer({\r\n            carrier: msg.sender,\r\n            orderId: orderId,\r\n            message: message\r\n        }));\r\n\r\n        offerId = offers.length - 1;\r\n\r\n        orders[orderId].offerIds.push(offerId);\r\n        orders[orderId].updatedAt = block.number;\r\n\r\n        emit NewOffer(orderId, offerId);\r\n    }\r\n\r\n    function getOrderOffers(uint orderId) public view returns (Offer[] orderOffers) {\r\n        uint[] memory orderOfferIds = orders[orderId].offerIds;\r\n\r\n        for (uint i = 0; i < orderOfferIds.length; ++i) {\r\n            orderOffers[i] = offers[orderOfferIds[i]];\r\n        }\r\n    }\r\n    /*function getOrderOffers(uint orderId) public view returns (uint[]) {\r\n        return orders[orderId].offerIds;\r\n    }*/\r\n}\r\n",
  "sourcePath": "C:\\Users\\Artod\\github\\osliki-foundation\\osliki\\contracts\\Osliki.sol",
  "compiler": {
    "name": "solc",
    "version": "0.4.21+commit.dfe3193c.Emscripten.clang"
  },
  "schemaVersion": "2.0.0",
  "updatedAt": "2018-03-10T06:23:45.534Z"
}